{
  "contractName": "Donutvending",
  "abi": [
    {
      "inputs": [],
      "stateMutability": "nonpayable",
      "type": "constructor"
    },
    {
      "inputs": [],
      "name": "owner",
      "outputs": [
        {
          "internalType": "address",
          "name": "",
          "type": "address"
        }
      ],
      "stateMutability": "view",
      "type": "function",
      "constant": true
    },
    {
      "inputs": [],
      "name": "getVendingMachineBalance",
      "outputs": [
        {
          "internalType": "uint256",
          "name": "",
          "type": "uint256"
        }
      ],
      "stateMutability": "view",
      "type": "function",
      "constant": true
    },
    {
      "inputs": [
        {
          "internalType": "uint256",
          "name": "amount",
          "type": "uint256"
        }
      ],
      "name": "restock",
      "outputs": [],
      "stateMutability": "nonpayable",
      "type": "function"
    },
    {
      "inputs": [
        {
          "internalType": "uint256",
          "name": "amount",
          "type": "uint256"
        }
      ],
      "name": "purchase",
      "outputs": [],
      "stateMutability": "payable",
      "type": "function",
      "payable": true
    },
    {
      "inputs": [
        {
          "internalType": "address",
          "name": "_address",
          "type": "address"
        }
      ],
      "name": "thebalance",
      "outputs": [
        {
          "internalType": "uint256",
          "name": "",
          "type": "uint256"
        }
      ],
      "stateMutability": "view",
      "type": "function",
      "constant": true
    },
    {
      "inputs": [],
      "name": "getmyownbalance",
      "outputs": [
        {
          "internalType": "uint256",
          "name": "",
          "type": "uint256"
        }
      ],
      "stateMutability": "view",
      "type": "function",
      "constant": true
    }
  ],
  "bytecode": "0x608060405234801561001057600080fd5b50600080546001600160a01b0319163317815530815260016020526040902060649055610405806100426000396000f3fe6080604052600436106100555760003560e01c80631369cc361461005a5780632f6d831d146100a35780638da5cb5b146100c5578063c21a702a146100fd578063e7644d341461011f578063efef39a114610141575b600080fd5b34801561006657600080fd5b50610090610075366004610322565b6001600160a01b031660009081526001602052604090205490565b6040519081526020015b60405180910390f35b3480156100af57600080fd5b5033600090815260016020526040902054610090565b3480156100d157600080fd5b506000546100e5906001600160a01b031681565b6040516001600160a01b03909116815260200161009a565b34801561010957600080fd5b5061011d610118366004610352565b610154565b005b34801561012b57600080fd5b5030600090815260016020526040902054610090565b61011d61014f366004610352565b6101ea565b6000546001600160a01b031633146101c35760405162461bcd60e51b815260206004820152602760248201527f4f6e6c7920746865206f776e65722063616e20726573746f636b2074686973206044820152666d616368696e6560c81b60648201526084015b60405180910390fd5b30600090815260016020526040812080548392906101e290849061036b565b909155505050565b6101fc81671bc16d674ec80000610383565b34101561025a5760405162461bcd60e51b815260206004820152602660248201527f596f75206d757374207061792061746c6561737420322065746865722070657260448201526508191bdb9d5d60d21b60648201526084016101ba565b306000908152600160205260409020548111156102df5760405162461bcd60e51b815260206004820152603760248201527f4e6f7420656e6f75676820646f6e75747320696e2073746f636b20746f20667560448201527f6c6c66696c6c207075726368617365207265717565737400000000000000000060648201526084016101ba565b30600090815260016020526040812080548392906102fe9084906103a2565b909155505033600090815260016020526040812080548392906101e290849061036b565b60006020828403121561033457600080fd5b81356001600160a01b038116811461034b57600080fd5b9392505050565b60006020828403121561036457600080fd5b5035919050565b6000821982111561037e5761037e6103b9565b500190565b600081600019048311821515161561039d5761039d6103b9565b500290565b6000828210156103b4576103b46103b9565b500390565b634e487b7160e01b600052601160045260246000fdfea26469706673582212205dc2d71cbb34f3d02d0d004074c432209fd3cc5b958ee401f3facd0e4de1540e64736f6c63430008070033",
  "immutableReferences": {},
  "source": "\n\n/*\nSolidity function composition\n\nfunction <func_name> (<param_type> , <param_name>) visibility <state mutability> <returns <return_type>>{}\n\n\nVISIBILITY:\nprivate - only visible in the current contract\ninternal- can be called by the current contract or any derived contracts\nexternal- only visible externally , however can be acessed within the current contract via 'this.func'\npublic- (default) visible externally and internally\n\nSTATE MUTABILITY:\nview: Functions declared with view can read state but not modify it\npure: Functions can neither read or modify state\npayable: Functions declared with payable can accept ether sent to the contract. If a function doesnt take this keyword it will by default reject the ether sended.\n*/\n\n/*\nVENDING MACHINE\nState variables: owner , balances\nFunctions: purchase , restock , get balance\nconstructor: set owner, set initial balance of vending machine\n*/\npragma solidity ^0.8.7;\ncontract Donutvending{\n//declare the state variables\n address public owner;\n mapping (address => uint)internal donutBalances;\n\n\n//constructor\nconstructor(){\n//sender is the deployer of the contract\nowner=msg.sender;\n//address of the current contract\ndonutBalances[address(this)] = 100;\n}\n\n/*FUNCTIONS*/\n//get current balance of donuts\nfunction getVendingMachineBalance() public view returns(uint){\n//return balance\nreturn donutBalances[address(this)];\n}\n\n\n//it will change data so , theres no keyword afterwards\nfunction restock(uint amount)public{\n    //lets supose we only want the owner to restock it, in order to do that we will apply an require\n    //sender in the contructor is the contract deployer but here it could not\n    require(msg.sender == owner,\"Only the owner can restock this machine\");\ndonutBalances[address(this)] += amount;\n}\n\n\n//this func is payable because we need to receive ether\nfunction purchase(uint amount) public payable {\n//require for the value is enough and also balance of donuts in the machine is enought\nrequire(msg.value >= amount * /*donut price*/ 2 ether,\"You must pay atleast 2 ether per donut\");\nrequire(donutBalances[address(this)]>=amount,\"Not enough donuts in stock to fullfill purchase request\");\n//update the balance\ndonutBalances[address(this)] -= amount;\n//update the sender balance\ndonutBalances[msg.sender] += amount;\n}\n\n//funcao para retornar o balanco\nfunction thebalance(address _address) public view returns(uint){\nreturn donutBalances[_address];\n}\n//funcao para retornar proprio balanco\nfunction getmyownbalance() public view returns(uint){\n    return donutBalances[msg.sender];\n}\n\n\n}",
  "sourcePath": "/home/pedromn35/Desktop/smartcontracts/Smart-contract-truffle/contracts/Vending.sol",
  "compiler": {
    "name": "solc",
    "version": "0.8.7+commit.e28d00a7.Emscripten.clang"
  },
  "schemaVersion": "3.4.7",
  "updatedAt": "2022-05-22T09:43:42.775Z",
  "networkType": "ethereum",
  "devdoc": {
    "kind": "dev",
    "methods": {},
    "version": 1
  },
  "userdoc": {
    "kind": "user",
    "methods": {},
    "version": 1
  }
}